{
  "contractName": "GamerTag",
  "abi": [
    {
      "inputs": [
        {
          "internalType": "address",
          "name": "",
          "type": "address"
        }
      ],
      "name": "tagClaimedAt",
      "outputs": [
        {
          "internalType": "uint256",
          "name": "",
          "type": "uint256"
        }
      ],
      "stateMutability": "view",
      "type": "function",
      "constant": true
    },
    {
      "inputs": [
        {
          "internalType": "address",
          "name": "_address",
          "type": "address"
        }
      ],
      "name": "getNickname",
      "outputs": [
        {
          "internalType": "string",
          "name": "",
          "type": "string"
        }
      ],
      "stateMutability": "view",
      "type": "function",
      "constant": true
    },
    {
      "inputs": [
        {
          "internalType": "string",
          "name": "_nickname",
          "type": "string"
        }
      ],
      "name": "setNickname",
      "outputs": [],
      "stateMutability": "nonpayable",
      "type": "function"
    },
    {
      "inputs": [
        {
          "internalType": "string",
          "name": "_tag",
          "type": "string"
        }
      ],
      "name": "isTagAvailable",
      "outputs": [
        {
          "internalType": "bool",
          "name": "",
          "type": "bool"
        }
      ],
      "stateMutability": "view",
      "type": "function",
      "constant": true
    },
    {
      "inputs": [
        {
          "internalType": "address",
          "name": "_address",
          "type": "address"
        }
      ],
      "name": "getTag",
      "outputs": [
        {
          "internalType": "string",
          "name": "",
          "type": "string"
        }
      ],
      "stateMutability": "view",
      "type": "function",
      "constant": true
    },
    {
      "inputs": [
        {
          "internalType": "string",
          "name": "_tag",
          "type": "string"
        }
      ],
      "name": "claimTag",
      "outputs": [],
      "stateMutability": "nonpayable",
      "type": "function"
    }
  ],
  "bytecode": "0x608060405234801561001057600080fd5b50610bfe806100206000396000f3fe608060405234801561001057600080fd5b50600436106100625760003560e01c80630dc307c6146100675780630ebcc8cd146100975780631437645c146100c75780631c5d9faa146100f757806325a24f4f14610113578063adaccd741461012f575b600080fd5b610081600480360381019061007c9190610808565b61015f565b60405161008e919061086c565b60405180910390f35b6100b160048036038101906100ac91906108e5565b6101d5565b6040516100be919061092b565b60405180910390f35b6100e160048036038101906100dc91906108e5565b6101ed565b6040516100ee91906109ce565b60405180910390f35b610111600480360381019061010c9190610808565b6102bd565b005b61012d60048036038101906101289190610808565b610314565b005b610149600480360381019061014491906108e5565b61053a565b60405161015691906109ce565b60405180910390f35b60008073ffffffffffffffffffffffffffffffffffffffff166002836040516101889190610a2c565b908152602001604051809103902060009054906101000a900473ffffffffffffffffffffffffffffffffffffffff1673ffffffffffffffffffffffffffffffffffffffff16149050919050565b60036020528060005260406000206000915090505481565b60606000808373ffffffffffffffffffffffffffffffffffffffff1673ffffffffffffffffffffffffffffffffffffffff168152602001908152602001600020805461023890610a72565b80601f016020809104026020016040519081016040528092919081815260200182805461026490610a72565b80156102b15780601f10610286576101008083540402835291602001916102b1565b820191906000526020600020905b81548152906001019060200180831161029457829003601f168201915b50505050509050919050565b80600160003373ffffffffffffffffffffffffffffffffffffffff1673ffffffffffffffffffffffffffffffffffffffff168152602001908152602001600020908051906020019061031092919061060b565b5050565b600073ffffffffffffffffffffffffffffffffffffffff1660028260405161033c9190610a2c565b908152602001604051809103902060009054906101000a900473ffffffffffffffffffffffffffffffffffffffff1673ffffffffffffffffffffffffffffffffffffffff16146103c1576040517f08c379a00000000000000000000000000000000000000000000000000000000081526004016103b890610b16565b60405180910390fd5b6000600360003373ffffffffffffffffffffffffffffffffffffffff1673ffffffffffffffffffffffffffffffffffffffff1681526020019081526020016000205414610443576040517f08c379a000000000000000000000000000000000000000000000000000000000815260040161043a90610ba8565b60405180910390fd5b806000803373ffffffffffffffffffffffffffffffffffffffff1673ffffffffffffffffffffffffffffffffffffffff168152602001908152602001600020908051906020019061049592919061060b565b50336002826040516104a79190610a2c565b908152602001604051809103902060006101000a81548173ffffffffffffffffffffffffffffffffffffffff021916908373ffffffffffffffffffffffffffffffffffffffff16021790555042600360003373ffffffffffffffffffffffffffffffffffffffff1673ffffffffffffffffffffffffffffffffffffffff1681526020019081526020016000208190555050565b6060600160008373ffffffffffffffffffffffffffffffffffffffff1673ffffffffffffffffffffffffffffffffffffffff168152602001908152602001600020805461058690610a72565b80601f01602080910402602001604051908101604052809291908181526020018280546105b290610a72565b80156105ff5780601f106105d4576101008083540402835291602001916105ff565b820191906000526020600020905b8154815290600101906020018083116105e257829003601f168201915b50505050509050919050565b82805461061790610a72565b90600052602060002090601f0160209004810192826106395760008555610680565b82601f1061065257805160ff1916838001178555610680565b82800160010185558215610680579182015b8281111561067f578251825591602001919060010190610664565b5b50905061068d9190610691565b5090565b5b808211156106aa576000816000905550600101610692565b5090565b6000604051905090565b600080fd5b600080fd5b600080fd5b600080fd5b6000601f19601f8301169050919050565b7f4e487b7100000000000000000000000000000000000000000000000000000000600052604160045260246000fd5b610715826106cc565b810181811067ffffffffffffffff82111715610734576107336106dd565b5b80604052505050565b60006107476106ae565b9050610753828261070c565b919050565b600067ffffffffffffffff821115610773576107726106dd565b5b61077c826106cc565b9050602081019050919050565b82818337600083830152505050565b60006107ab6107a684610758565b61073d565b9050828152602081018484840111156107c7576107c66106c7565b5b6107d2848285610789565b509392505050565b600082601f8301126107ef576107ee6106c2565b5b81356107ff848260208601610798565b91505092915050565b60006020828403121561081e5761081d6106b8565b5b600082013567ffffffffffffffff81111561083c5761083b6106bd565b5b610848848285016107da565b91505092915050565b60008115159050919050565b61086681610851565b82525050565b6000602082019050610881600083018461085d565b92915050565b600073ffffffffffffffffffffffffffffffffffffffff82169050919050565b60006108b282610887565b9050919050565b6108c2816108a7565b81146108cd57600080fd5b50565b6000813590506108df816108b9565b92915050565b6000602082840312156108fb576108fa6106b8565b5b6000610909848285016108d0565b91505092915050565b6000819050919050565b61092581610912565b82525050565b6000602082019050610940600083018461091c565b92915050565b600081519050919050565b600082825260208201905092915050565b60005b83811015610980578082015181840152602081019050610965565b8381111561098f576000848401525b50505050565b60006109a082610946565b6109aa8185610951565b93506109ba818560208601610962565b6109c3816106cc565b840191505092915050565b600060208201905081810360008301526109e88184610995565b905092915050565b600081905092915050565b6000610a0682610946565b610a1081856109f0565b9350610a20818560208601610962565b80840191505092915050565b6000610a3882846109fb565b915081905092915050565b7f4e487b7100000000000000000000000000000000000000000000000000000000600052602260045260246000fd5b60006002820490506001821680610a8a57607f821691505b60208210811415610a9e57610a9d610a43565b5b50919050565b7f47616d65725461673a2074686174207461672068617320616c7265616479206260008201527f65656e20636c61696d6564000000000000000000000000000000000000000000602082015250565b6000610b00602b83610951565b9150610b0b82610aa4565b604082019050919050565b60006020820190508181036000830152610b2f81610af3565b9050919050565b7f47616d65725461673a20616464726573732063616e206f6e6c7920686176652060008201527f6f6e652074616700000000000000000000000000000000000000000000000000602082015250565b6000610b92602783610951565b9150610b9d82610b36565b604082019050919050565b60006020820190508181036000830152610bc181610b85565b905091905056fea264697066735822122014e0b6c0838272c27075c265b6c7566d009bcb3617a9d3273140b53ce570018f64736f6c634300080b0033",
  "immutableReferences": {},
  "source": "// SPDX-License-Identifier: MIT\npragma solidity ^0.8.11;\n\nimport \"./StringLib.sol\";\nimport \"./IGamerTag.sol\";\n\n// @name Gamer Tag\ncontract GamerTag is IGamerTag {\n  mapping(address => string) private tags;          // Gamer addresses -> tags (unique)\n  mapping(address => string) private nicknames;     // Gamer addresses -> nicknames (not unique)\n  mapping(string => address) private claimedTags;   // Tags -> gamer address with it set\n  mapping(address => uint256) public tagClaimedAt;  // Gamer addresses -> tag claim time\n\n  // @name Get Nickname\n  // @notice Gets an addresses nickname, will return an empty string if none is set\n  // @param _address address to lookup nickname for\n  // @return Addresses nickname\n  function getNickname(address _address) external view returns(string memory) {\n    return nicknames[_address];\n  }\n\n  // @name Set Nickname\n  // @notice Sets an addresses nickname, can be changed as often as desired\n  // @param _nickname nickname to set for caller\n  function setNickname(string memory _nickname) external {\n    nicknames[msg.sender] = _nickname;\n  }\n\n  // @name Is Tag Available?\n  // @notice Checks if a tag has already been claimed\n  // @param _tag gamer tag to set for caller\n  // @return Whether the tag is available to claim\n  function isTagAvailable(string memory _tag) external view returns(bool){\n    return claimedTags[_tag] == address(0);\n  }\n\n  // @name Get Tag\n  // @notice Gets an addresses set tag, will return an empty string if none is set\n  // @param _address address to tag nickname for\n  // @return Addresses gamer tag\n  function getTag(address _address) external view returns(string memory) {\n    return tags[_address];\n  }\n\n  // @name Claim Tag\n  // @notice Will permanently claim an available tag for teh calling address, only callable once per address\n  // @dev Will throw an error if the tag has already been claimed\n  // @param _tag gamer tag to set for caller\n  function claimTag(string memory _tag) external {\n    require(claimedTags[_tag] == address(0), \"GamerTag: that tag has already been claimed\");\n    require(tagClaimedAt[msg.sender] == 0, \"GamerTag: address can only have one tag\");\n\n    // Set tag\n    tags[msg.sender] = _tag;\n    claimedTags[_tag] = msg.sender;\n    tagClaimedAt[msg.sender] = block.timestamp;\n  }\n}\n",
  "sourcePath": "/Users/tjharrison/he/game-tag/contracts/GamerTag.sol",
  "compiler": {
    "name": "solc",
    "version": "0.8.11+commit.d7f03943.Emscripten.clang"
  },
  "schemaVersion": "3.4.3",
  "updatedAt": "2022-01-30T22:13:16.463Z",
  "networkType": "ethereum",
  "devdoc": {
    "kind": "dev",
    "methods": {},
    "version": 1
  },
  "userdoc": {
    "kind": "user",
    "methods": {},
    "version": 1
  }
}