{
  "contractName": "GamerTag",
  "abi": [
    {
      "inputs": [
        {
          "internalType": "address",
          "name": "_unsResolver",
          "type": "address"
        },
        {
          "internalType": "address",
          "name": "_unsRegistryReader",
          "type": "address"
        }
      ],
      "stateMutability": "nonpayable",
      "type": "constructor"
    },
    {
      "inputs": [
        {
          "internalType": "address",
          "name": "",
          "type": "address"
        }
      ],
      "name": "tagClaimedAt",
      "outputs": [
        {
          "internalType": "uint256",
          "name": "",
          "type": "uint256"
        }
      ],
      "stateMutability": "view",
      "type": "function",
      "constant": true
    },
    {
      "inputs": [
        {
          "internalType": "address",
          "name": "_address",
          "type": "address"
        }
      ],
      "name": "getNickname",
      "outputs": [
        {
          "internalType": "string",
          "name": "",
          "type": "string"
        }
      ],
      "stateMutability": "view",
      "type": "function",
      "constant": true
    },
    {
      "inputs": [
        {
          "internalType": "string",
          "name": "_nickname",
          "type": "string"
        }
      ],
      "name": "setNickname",
      "outputs": [],
      "stateMutability": "nonpayable",
      "type": "function"
    },
    {
      "inputs": [
        {
          "internalType": "address",
          "name": "_address",
          "type": "address"
        }
      ],
      "name": "getTag",
      "outputs": [
        {
          "internalType": "string",
          "name": "",
          "type": "string"
        }
      ],
      "stateMutability": "view",
      "type": "function",
      "constant": true
    },
    {
      "inputs": [
        {
          "internalType": "string",
          "name": "_tag",
          "type": "string"
        }
      ],
      "name": "setTag",
      "outputs": [],
      "stateMutability": "nonpayable",
      "type": "function"
    },
    {
      "inputs": [],
      "name": "useUnstoppableDomainForTag",
      "outputs": [],
      "stateMutability": "nonpayable",
      "type": "function"
    },
    {
      "inputs": [],
      "name": "useUnstoppableDomainForNickname",
      "outputs": [],
      "stateMutability": "nonpayable",
      "type": "function"
    }
  ],
  "bytecode": "0x60806040523480156200001157600080fd5b50604051620015023803806200150283398181016040528101906200003791906200012b565b81600460006101000a81548173ffffffffffffffffffffffffffffffffffffffff021916908373ffffffffffffffffffffffffffffffffffffffff16021790555080600560006101000a81548173ffffffffffffffffffffffffffffffffffffffff021916908373ffffffffffffffffffffffffffffffffffffffff160217905550505062000172565b600080fd5b600073ffffffffffffffffffffffffffffffffffffffff82169050919050565b6000620000f382620000c6565b9050919050565b6200010581620000e6565b81146200011157600080fd5b50565b6000815190506200012581620000fa565b92915050565b60008060408385031215620001455762000144620000c1565b5b6000620001558582860162000114565b9250506020620001688582860162000114565b9150509250929050565b61138080620001826000396000f3fe608060405234801561001057600080fd5b506004361061007d5760003560e01c806317e919c41161005b57806317e919c4146100fe5780631c5d9faa146101085780633c29521c14610124578063adaccd741461012e5761007d565b8063071fcb97146100825780630ebcc8cd1461009e5780631437645c146100ce575b600080fd5b61009c60048036038101906100979190610e6b565b61015e565b005b6100b860048036038101906100b39190610f12565b6104f6565b6040516100c59190610f58565b60405180910390f35b6100e860048036038101906100e39190610f12565b61050e565b6040516100f59190610ffb565b60405180910390f35b6101066105de565b005b610122600480360381019061011d9190610e6b565b61072a565b005b61012c610781565b005b61014860048036038101906101439190610f12565b6108cd565b6040516101559190610ffb565b60405180910390f35b600073ffffffffffffffffffffffffffffffffffffffff166003826040516101869190611059565b908152602001604051809103902060009054906101000a900473ffffffffffffffffffffffffffffffffffffffff1673ffffffffffffffffffffffffffffffffffffffff16148061024057503373ffffffffffffffffffffffffffffffffffffffff166003826040516101f99190611059565b908152602001604051809103902060009054906101000a900473ffffffffffffffffffffffffffffffffffffffff1673ffffffffffffffffffffffffffffffffffffffff16145b61027f576040517f08c379a0000000000000000000000000000000000000000000000000000000008152600401610276906110e2565b60405180910390fd5b61035e6000803373ffffffffffffffffffffffffffffffffffffffff1673ffffffffffffffffffffffffffffffffffffffff16815260200190815260200160002080546102cb90611131565b80601f01602080910402602001604051908101604052809291908181526020018280546102f790611131565b80156103445780601f1061031957610100808354040283529160200191610344565b820191906000526020600020905b81548152906001019060200180831161032757829003601f168201915b50505050506040518060200160405280600081525061099e565b156103ff57600060036000803373ffffffffffffffffffffffffffffffffffffffff1673ffffffffffffffffffffffffffffffffffffffff1681526020019081526020016000206040516103b291906111f7565b908152602001604051809103902060006101000a81548173ffffffffffffffffffffffffffffffffffffffff021916908373ffffffffffffffffffffffffffffffffffffffff1602179055505b806000803373ffffffffffffffffffffffffffffffffffffffff1673ffffffffffffffffffffffffffffffffffffffff1681526020019081526020016000209080519060200190610451929190610c6e565b50336003826040516104639190611059565b908152602001604051809103902060006101000a81548173ffffffffffffffffffffffffffffffffffffffff021916908373ffffffffffffffffffffffffffffffffffffffff16021790555042600260003373ffffffffffffffffffffffffffffffffffffffff1673ffffffffffffffffffffffffffffffffffffffff1681526020019081526020016000208190555050565b60026020528060005260406000206000915090505481565b60606000808373ffffffffffffffffffffffffffffffffffffffff1673ffffffffffffffffffffffffffffffffffffffff168152602001908152602001600020805461055990611131565b80601f016020809104026020016040519081016040528092919081815260200182805461058590611131565b80156105d25780601f106105a7576101008083540402835291602001916105d2565b820191906000526020600020905b8154815290600101906020018083116105b557829003601f168201915b50505050509050919050565b6000600460009054906101000a900473ffffffffffffffffffffffffffffffffffffffff1673ffffffffffffffffffffffffffffffffffffffff16637e37479e336040518263ffffffff1660e01b815260040161063b919061121d565b602060405180830381865afa158015610658573d6000803e3d6000fd5b505050506040513d601f19601f8201168201806040525081019061067c9190611264565b9050610727600560009054906101000a900473ffffffffffffffffffffffffffffffffffffffff1673ffffffffffffffffffffffffffffffffffffffff1663c87b56dd836040518263ffffffff1660e01b81526004016106dc9190610f58565b600060405180830381865afa1580156106f9573d6000803e3d6000fd5b505050506040513d6000823e3d601f19601f820116820180604052508101906107229190611301565b61072a565b50565b80600160003373ffffffffffffffffffffffffffffffffffffffff1673ffffffffffffffffffffffffffffffffffffffff168152602001908152602001600020908051906020019061077d929190610c6e565b5050565b6000600460009054906101000a900473ffffffffffffffffffffffffffffffffffffffff1673ffffffffffffffffffffffffffffffffffffffff16637e37479e336040518263ffffffff1660e01b81526004016107de919061121d565b602060405180830381865afa1580156107fb573d6000803e3d6000fd5b505050506040513d601f19601f8201168201806040525081019061081f9190611264565b90506108ca600560009054906101000a900473ffffffffffffffffffffffffffffffffffffffff1673ffffffffffffffffffffffffffffffffffffffff1663c87b56dd836040518263ffffffff1660e01b815260040161087f9190610f58565b600060405180830381865afa15801561089c573d6000803e3d6000fd5b505050506040513d6000823e3d601f19601f820116820180604052508101906108c59190611301565b6109f7565b50565b6060600160008373ffffffffffffffffffffffffffffffffffffffff1673ffffffffffffffffffffffffffffffffffffffff168152602001908152602001600020805461091990611131565b80601f016020809104026020016040519081016040528092919081815260200182805461094590611131565b80156109925780601f1061096757610100808354040283529160200191610992565b820191906000526020600020905b81548152906001019060200180831161097557829003601f168201915b50505050509050919050565b6000816040516020016109b19190611059565b60405160208183030381529060405280519060200120836040516020016109d89190611059565b6040516020818303038152906040528051906020012014905092915050565b610ad66000803373ffffffffffffffffffffffffffffffffffffffff1673ffffffffffffffffffffffffffffffffffffffff1681526020019081526020016000208054610a4390611131565b80601f0160208091040260200160405190810160405280929190818152602001828054610a6f90611131565b8015610abc5780601f10610a9157610100808354040283529160200191610abc565b820191906000526020600020905b815481529060010190602001808311610a9f57829003601f168201915b50505050506040518060200160405280600081525061099e565b15610b7757600060036000803373ffffffffffffffffffffffffffffffffffffffff1673ffffffffffffffffffffffffffffffffffffffff168152602001908152602001600020604051610b2a91906111f7565b908152602001604051809103902060006101000a81548173ffffffffffffffffffffffffffffffffffffffff021916908373ffffffffffffffffffffffffffffffffffffffff1602179055505b806000803373ffffffffffffffffffffffffffffffffffffffff1673ffffffffffffffffffffffffffffffffffffffff1681526020019081526020016000209080519060200190610bc9929190610c6e565b5033600382604051610bdb9190611059565b908152602001604051809103902060006101000a81548173ffffffffffffffffffffffffffffffffffffffff021916908373ffffffffffffffffffffffffffffffffffffffff16021790555042600260003373ffffffffffffffffffffffffffffffffffffffff1673ffffffffffffffffffffffffffffffffffffffff1681526020019081526020016000208190555050565b828054610c7a90611131565b90600052602060002090601f016020900481019282610c9c5760008555610ce3565b82601f10610cb557805160ff1916838001178555610ce3565b82800160010185558215610ce3579182015b82811115610ce2578251825591602001919060010190610cc7565b5b509050610cf09190610cf4565b5090565b5b80821115610d0d576000816000905550600101610cf5565b5090565b6000604051905090565b600080fd5b600080fd5b600080fd5b600080fd5b6000601f19601f8301169050919050565b7f4e487b7100000000000000000000000000000000000000000000000000000000600052604160045260246000fd5b610d7882610d2f565b810181811067ffffffffffffffff82111715610d9757610d96610d40565b5b80604052505050565b6000610daa610d11565b9050610db68282610d6f565b919050565b600067ffffffffffffffff821115610dd657610dd5610d40565b5b610ddf82610d2f565b9050602081019050919050565b82818337600083830152505050565b6000610e0e610e0984610dbb565b610da0565b905082815260208101848484011115610e2a57610e29610d2a565b5b610e35848285610dec565b509392505050565b600082601f830112610e5257610e51610d25565b5b8135610e62848260208601610dfb565b91505092915050565b600060208284031215610e8157610e80610d1b565b5b600082013567ffffffffffffffff811115610e9f57610e9e610d20565b5b610eab84828501610e3d565b91505092915050565b600073ffffffffffffffffffffffffffffffffffffffff82169050919050565b6000610edf82610eb4565b9050919050565b610eef81610ed4565b8114610efa57600080fd5b50565b600081359050610f0c81610ee6565b92915050565b600060208284031215610f2857610f27610d1b565b5b6000610f3684828501610efd565b91505092915050565b6000819050919050565b610f5281610f3f565b82525050565b6000602082019050610f6d6000830184610f49565b92915050565b600081519050919050565b600082825260208201905092915050565b60005b83811015610fad578082015181840152602081019050610f92565b83811115610fbc576000848401525b50505050565b6000610fcd82610f73565b610fd78185610f7e565b9350610fe7818560208601610f8f565b610ff081610d2f565b840191505092915050565b600060208201905081810360008301526110158184610fc2565b905092915050565b600081905092915050565b600061103382610f73565b61103d818561101d565b935061104d818560208601610f8f565b80840191505092915050565b60006110658284611028565b915081905092915050565b7f47616d655461673a2074686174207461672068617320616c726561647920626560008201527f656e20636c61696d656400000000000000000000000000000000000000000000602082015250565b60006110cc602a83610f7e565b91506110d782611070565b604082019050919050565b600060208201905081810360008301526110fb816110bf565b9050919050565b7f4e487b7100000000000000000000000000000000000000000000000000000000600052602260045260246000fd5b6000600282049050600182168061114957607f821691505b6020821081141561115d5761115c611102565b5b50919050565b60008190508160005260206000209050919050565b6000815461118581611131565b61118f818661101d565b945060018216600081146111aa57600181146111bb576111ee565b60ff198316865281860193506111ee565b6111c485611163565b60005b838110156111e6578154818901526001820191506020810190506111c7565b838801955050505b50505092915050565b60006112038284611178565b915081905092915050565b61121781610ed4565b82525050565b6000602082019050611232600083018461120e565b92915050565b61124181610f3f565b811461124c57600080fd5b50565b60008151905061125e81611238565b92915050565b60006020828403121561127a57611279610d1b565b5b60006112888482850161124f565b91505092915050565b60006112a461129f84610dbb565b610da0565b9050828152602081018484840111156112c0576112bf610d2a565b5b6112cb848285610f8f565b509392505050565b600082601f8301126112e8576112e7610d25565b5b81516112f8848260208601611291565b91505092915050565b60006020828403121561131757611316610d1b565b5b600082015167ffffffffffffffff81111561133557611334610d20565b5b611341848285016112d3565b9150509291505056fea2646970667358221220e290ebbae9babd08e0c378086f78091cee99b8deef8b9e760810b392b9f0d7bf64736f6c634300080b0033",
  "immutableReferences": {},
  "source": "// SPDX-License-Identifier: MIT\npragma solidity ^0.8.11;\n\nimport \"./IUNSResolver.sol\";\nimport \"./IUNSRegistryReader.sol\";\nimport \"./StringLib.sol\";\n\n// @name Gamer Tag\ncontract GamerTag {\n  mapping(address => string) private tags;          // Gamer addresses -> tags (unique)\n  mapping(address => string) private nicknames;     // Gamer addresses -> nicknames (not unique)\n  mapping(address => uint256) public tagClaimedAt;  // Gamer addresses -> tag claim time\n  mapping(string => address) claimedTags;           // Tags -> gamer address with it set\n\n  //Unstoppable Domains support\n  IUNSResolver private unsResolver;\n  IUNSRegistryReader private unsRegistryReader;\n\n  constructor(address _unsResolver, address _unsRegistryReader) {\n    unsResolver = IUNSResolver(_unsResolver);\n    unsRegistryReader = IUNSRegistryReader(_unsRegistryReader);\n  }\n\n  // @name Get Nickname\n  // @param _address address to lookup nickname for\n  function getNickname(address _address) external view returns(string memory) {\n    return nicknames[_address];\n  }\n\n  // @name Set Nickname\n  // @param _nickname nickname to set for caller\n  function setNickname(string memory _nickname) public {\n    nicknames[msg.sender] = _nickname;\n  }\n\n  // @name Get Tag\n  // @param _address address to tag nickname for\n  function getTag(address _address) external view returns(string memory) {\n    return tags[_address];\n  }\n\n  // @name Set Tag\n  // @dev Will throw an error if the tag has already been claimed\n  // @param _tag gamer tag to set for caller\n  function setTag(string memory _tag) external {\n    require(claimedTags[_tag] == address(0) || claimedTags[_tag] == msg.sender, \"GameTag: that tag has already been claimed\");\n\n    if(StringLib.equals(tags[msg.sender], \"\")){\n      claimedTags[tags[msg.sender]] = address(0); // Already have a claimed tag, remove it first\n    }\n\n    // Update tag claim\n    tags[msg.sender] = _tag;\n    claimedTags[_tag] = msg.sender;\n    tagClaimedAt[msg.sender] = block.timestamp;\n  }\n\n  // @name Claim Tag\n  function _claimTag(string memory _tag) internal {\n    if(StringLib.equals(tags[msg.sender], \"\")){\n      claimedTags[tags[msg.sender]] = address(0); // Already have a claimed tag, remove it first\n    }\n\n    // Update tag claim\n    tags[msg.sender] = _tag;\n    claimedTags[_tag] = msg.sender;\n    tagClaimedAt[msg.sender] = block.timestamp;\n  }\n\n  // @name Use Unstoppable Domain for Tag\n  function useUnstoppableDomainForTag() public {\n    uint256 tokenId = unsResolver.reverseOf(msg.sender);\n    _claimTag(unsRegistryReader.tokenURI(tokenId));\n  }\n\n  // @name Use Unstoppable Domain for Nickname\n  function useUnstoppableDomainForNickname() public {\n    uint256 tokenId = unsResolver.reverseOf(msg.sender);\n    setNickname(unsRegistryReader.tokenURI(tokenId));\n  }\n}\n",
  "sourcePath": "/Users/tjharrison/he/game-tag/contracts/GamerTag.sol",
  "compiler": {
    "name": "solc",
    "version": "0.8.11+commit.d7f03943.Emscripten.clang"
  },
  "schemaVersion": "3.4.3",
  "updatedAt": "2022-01-24T01:57:46.234Z",
  "networkType": "ethereum",
  "devdoc": {
    "kind": "dev",
    "methods": {},
    "version": 1
  },
  "userdoc": {
    "kind": "user",
    "methods": {},
    "version": 1
  }
}