{
  "contractName": "GamerTag",
  "abi": [
    {
      "anonymous": false,
      "inputs": [
        {
          "indexed": true,
          "internalType": "address",
          "name": "from",
          "type": "address"
        },
        {
          "indexed": false,
          "internalType": "string",
          "name": "nickname",
          "type": "string"
        }
      ],
      "name": "NicknameChange",
      "type": "event"
    },
    {
      "anonymous": false,
      "inputs": [
        {
          "indexed": true,
          "internalType": "address",
          "name": "from",
          "type": "address"
        },
        {
          "indexed": false,
          "internalType": "string",
          "name": "tag",
          "type": "string"
        },
        {
          "indexed": false,
          "internalType": "uint256",
          "name": "claimTime",
          "type": "uint256"
        }
      ],
      "name": "TagClaim",
      "type": "event"
    },
    {
      "inputs": [
        {
          "internalType": "address",
          "name": "",
          "type": "address"
        }
      ],
      "name": "tagClaimedAt",
      "outputs": [
        {
          "internalType": "uint256",
          "name": "",
          "type": "uint256"
        }
      ],
      "stateMutability": "view",
      "type": "function",
      "constant": true
    },
    {
      "inputs": [
        {
          "internalType": "string",
          "name": "",
          "type": "string"
        }
      ],
      "name": "tagLookup",
      "outputs": [
        {
          "internalType": "address",
          "name": "",
          "type": "address"
        }
      ],
      "stateMutability": "view",
      "type": "function",
      "constant": true
    },
    {
      "inputs": [
        {
          "internalType": "address",
          "name": "_address",
          "type": "address"
        }
      ],
      "name": "getNickname",
      "outputs": [
        {
          "internalType": "string",
          "name": "",
          "type": "string"
        }
      ],
      "stateMutability": "view",
      "type": "function",
      "constant": true
    },
    {
      "inputs": [
        {
          "internalType": "string",
          "name": "_nickname",
          "type": "string"
        }
      ],
      "name": "setNickname",
      "outputs": [],
      "stateMutability": "nonpayable",
      "type": "function"
    },
    {
      "inputs": [
        {
          "internalType": "string",
          "name": "_tag",
          "type": "string"
        }
      ],
      "name": "isTagAvailable",
      "outputs": [
        {
          "internalType": "bool",
          "name": "",
          "type": "bool"
        }
      ],
      "stateMutability": "view",
      "type": "function",
      "constant": true
    },
    {
      "inputs": [
        {
          "internalType": "address",
          "name": "_address",
          "type": "address"
        }
      ],
      "name": "getTag",
      "outputs": [
        {
          "internalType": "string",
          "name": "",
          "type": "string"
        }
      ],
      "stateMutability": "view",
      "type": "function",
      "constant": true
    },
    {
      "inputs": [
        {
          "internalType": "string",
          "name": "_tag",
          "type": "string"
        }
      ],
      "name": "claimTag",
      "outputs": [],
      "stateMutability": "nonpayable",
      "type": "function"
    },
    {
      "inputs": [
        {
          "internalType": "address",
          "name": "",
          "type": "address"
        },
        {
          "internalType": "address",
          "name": "",
          "type": "address"
        },
        {
          "internalType": "uint256",
          "name": "",
          "type": "uint256"
        },
        {
          "internalType": "bytes",
          "name": "",
          "type": "bytes"
        }
      ],
      "name": "onERC721Received",
      "outputs": [
        {
          "internalType": "bytes4",
          "name": "",
          "type": "bytes4"
        }
      ],
      "stateMutability": "pure",
      "type": "function",
      "constant": true
    }
  ],
  "bytecode": "0x608060405234801561001057600080fd5b50611121806100206000396000f3fe608060405234801561001057600080fd5b50600436106100885760003560e01c806316c20cda1161005b57806316c20cda1461014d5780631c5d9faa1461017d57806325a24f4f14610199578063adaccd74146101b557610088565b80630dc307c61461008d5780630ebcc8cd146100bd5780631437645c146100ed578063150b7a021461011d575b600080fd5b6100a760048036038101906100a29190610936565b6101e5565b6040516100b4919061099a565b60405180910390f35b6100d760048036038101906100d29190610a13565b61025b565b6040516100e49190610a59565b60405180910390f35b61010760048036038101906101029190610a13565b610273565b6040516101149190610afc565b60405180910390f35b61013760048036038101906101329190610baa565b610343565b6040516101449190610c6d565b60405180910390f35b61016760048036038101906101629190610936565b610358565b6040516101749190610c97565b60405180910390f35b61019760048036038101906101929190610936565b6103a1565b005b6101b360048036038101906101ae9190610936565b61043f565b005b6101cf60048036038101906101ca9190610a13565b61070b565b6040516101dc9190610afc565b60405180910390f35b60008073ffffffffffffffffffffffffffffffffffffffff1660038360405161020e9190610cee565b908152602001604051809103902060009054906101000a900473ffffffffffffffffffffffffffffffffffffffff1673ffffffffffffffffffffffffffffffffffffffff16149050919050565b60046020528060005260406000206000915090505481565b60606000808373ffffffffffffffffffffffffffffffffffffffff1673ffffffffffffffffffffffffffffffffffffffff16815260200190815260200160002080546102be90610d34565b80601f01602080910402602001604051908101604052809291908181526020018280546102ea90610d34565b80156103375780601f1061030c57610100808354040283529160200191610337565b820191906000526020600020905b81548152906001019060200180831161031a57829003601f168201915b50505050509050919050565b600063150b7a0260e01b905095945050505050565b6001818051602081018201805184825260208301602085012081835280955050505050506000915054906101000a900473ffffffffffffffffffffffffffffffffffffffff1681565b80600260003373ffffffffffffffffffffffffffffffffffffffff1673ffffffffffffffffffffffffffffffffffffffff16815260200190815260200160002090816103ed9190610f11565b503373ffffffffffffffffffffffffffffffffffffffff167f07cc6558ea0056515ef58eb821d0c1a9b601bdf61657269c5981521cef9a6686826040516104349190610afc565b60405180910390a250565b600073ffffffffffffffffffffffffffffffffffffffff166003826040516104679190610cee565b908152602001604051809103902060009054906101000a900473ffffffffffffffffffffffffffffffffffffffff1673ffffffffffffffffffffffffffffffffffffffff16146104ec576040517f08c379a00000000000000000000000000000000000000000000000000000000081526004016104e39061102f565b60405180910390fd5b6000600460003373ffffffffffffffffffffffffffffffffffffffff1673ffffffffffffffffffffffffffffffffffffffff168152602001908152602001600020541461056e576040517f08c379a00000000000000000000000000000000000000000000000000000000081526004016105659061109b565b60405180910390fd5b806000803373ffffffffffffffffffffffffffffffffffffffff1673ffffffffffffffffffffffffffffffffffffffff16815260200190815260200160002090816105b99190610f11565b50336001826040516105cb9190610cee565b908152602001604051809103902060006101000a81548173ffffffffffffffffffffffffffffffffffffffff021916908373ffffffffffffffffffffffffffffffffffffffff160217905550336003826040516106289190610cee565b908152602001604051809103902060006101000a81548173ffffffffffffffffffffffffffffffffffffffff021916908373ffffffffffffffffffffffffffffffffffffffff16021790555042600460003373ffffffffffffffffffffffffffffffffffffffff1673ffffffffffffffffffffffffffffffffffffffff168152602001908152602001600020819055503373ffffffffffffffffffffffffffffffffffffffff167f916b73c35d965dfcb229681a78adfb43148e12e93d86641314234dcf83ac019482426040516107009291906110bb565b60405180910390a250565b6060600260008373ffffffffffffffffffffffffffffffffffffffff1673ffffffffffffffffffffffffffffffffffffffff168152602001908152602001600020805461075790610d34565b80601f016020809104026020016040519081016040528092919081815260200182805461078390610d34565b80156107d05780601f106107a5576101008083540402835291602001916107d0565b820191906000526020600020905b8154815290600101906020018083116107b357829003601f168201915b50505050509050919050565b6000604051905090565b600080fd5b600080fd5b600080fd5b600080fd5b6000601f19601f8301169050919050565b7f4e487b7100000000000000000000000000000000000000000000000000000000600052604160045260246000fd5b610843826107fa565b810181811067ffffffffffffffff821117156108625761086161080b565b5b80604052505050565b60006108756107dc565b9050610881828261083a565b919050565b600067ffffffffffffffff8211156108a1576108a061080b565b5b6108aa826107fa565b9050602081019050919050565b82818337600083830152505050565b60006108d96108d484610886565b61086b565b9050828152602081018484840111156108f5576108f46107f5565b5b6109008482856108b7565b509392505050565b600082601f83011261091d5761091c6107f0565b5b813561092d8482602086016108c6565b91505092915050565b60006020828403121561094c5761094b6107e6565b5b600082013567ffffffffffffffff81111561096a576109696107eb565b5b61097684828501610908565b91505092915050565b60008115159050919050565b6109948161097f565b82525050565b60006020820190506109af600083018461098b565b92915050565b600073ffffffffffffffffffffffffffffffffffffffff82169050919050565b60006109e0826109b5565b9050919050565b6109f0816109d5565b81146109fb57600080fd5b50565b600081359050610a0d816109e7565b92915050565b600060208284031215610a2957610a286107e6565b5b6000610a37848285016109fe565b91505092915050565b6000819050919050565b610a5381610a40565b82525050565b6000602082019050610a6e6000830184610a4a565b92915050565b600081519050919050565b600082825260208201905092915050565b60005b83811015610aae578082015181840152602081019050610a93565b83811115610abd576000848401525b50505050565b6000610ace82610a74565b610ad88185610a7f565b9350610ae8818560208601610a90565b610af1816107fa565b840191505092915050565b60006020820190508181036000830152610b168184610ac3565b905092915050565b610b2781610a40565b8114610b3257600080fd5b50565b600081359050610b4481610b1e565b92915050565b600080fd5b600080fd5b60008083601f840112610b6a57610b696107f0565b5b8235905067ffffffffffffffff811115610b8757610b86610b4a565b5b602083019150836001820283011115610ba357610ba2610b4f565b5b9250929050565b600080600080600060808688031215610bc657610bc56107e6565b5b6000610bd4888289016109fe565b9550506020610be5888289016109fe565b9450506040610bf688828901610b35565b935050606086013567ffffffffffffffff811115610c1757610c166107eb565b5b610c2388828901610b54565b92509250509295509295909350565b60007fffffffff0000000000000000000000000000000000000000000000000000000082169050919050565b610c6781610c32565b82525050565b6000602082019050610c826000830184610c5e565b92915050565b610c91816109d5565b82525050565b6000602082019050610cac6000830184610c88565b92915050565b600081905092915050565b6000610cc882610a74565b610cd28185610cb2565b9350610ce2818560208601610a90565b80840191505092915050565b6000610cfa8284610cbd565b915081905092915050565b7f4e487b7100000000000000000000000000000000000000000000000000000000600052602260045260246000fd5b60006002820490506001821680610d4c57607f821691505b602082108103610d5f57610d5e610d05565b5b50919050565b60008190508160005260206000209050919050565b60006020601f8301049050919050565b600082821b905092915050565b600060088302610dc77fffffffffffffffffffffffffffffffffffffffffffffffffffffffffffffffff82610d8a565b610dd18683610d8a565b95508019841693508086168417925050509392505050565b6000819050919050565b6000610e0e610e09610e0484610a40565b610de9565b610a40565b9050919050565b6000819050919050565b610e2883610df3565b610e3c610e3482610e15565b848454610d97565b825550505050565b600090565b610e51610e44565b610e5c818484610e1f565b505050565b5b81811015610e8057610e75600082610e49565b600181019050610e62565b5050565b601f821115610ec557610e9681610d65565b610e9f84610d7a565b81016020851015610eae578190505b610ec2610eba85610d7a565b830182610e61565b50505b505050565b600082821c905092915050565b6000610ee860001984600802610eca565b1980831691505092915050565b6000610f018383610ed7565b9150826002028217905092915050565b610f1a82610a74565b67ffffffffffffffff811115610f3357610f3261080b565b5b610f3d8254610d34565b610f48828285610e84565b600060209050601f831160018114610f7b5760008415610f69578287015190505b610f738582610ef5565b865550610fdb565b601f198416610f8986610d65565b60005b82811015610fb157848901518255600182019150602085019450602081019050610f8c565b86831015610fce5784890151610fca601f891682610ed7565b8355505b6001600288020188555050505b505050505050565b7f47543a2074616720616c726561647920636c61696d6564000000000000000000600082015250565b6000611019601783610a7f565b915061102482610fe3565b602082019050919050565b600060208201905081810360008301526110488161100c565b9050919050565b7f47543a2061646472657373206861732074616700000000000000000000000000600082015250565b6000611085601383610a7f565b91506110908261104f565b602082019050919050565b600060208201905081810360008301526110b481611078565b9050919050565b600060408201905081810360008301526110d58185610ac3565b90506110e46020830184610a4a565b939250505056fea2646970667358221220085758b2464417546ef291c413e761fc350d6fafadbc233f057db056d697be7264736f6c634300080f0033",
  "immutableReferences": {},
  "source": "// SPDX-License-Identifier: GPL\npragma solidity ^0.8.11;\n\nimport \"./IGamerTag.sol\";\n\n// @name Gamer Tag\ncontract GamerTag is IGamerTag {\n  mapping(address => string) private tags;          // Gamer addresses -> tags (unique)\n  mapping(string => address) public tagLookup;      // Gamer tags -> addresses\n  mapping(address => string) private nicknames;     // Gamer addresses -> nicknames (not unique)\n  mapping(string => address) private claimedTags;   // Tags -> gamer address with it set\n  mapping(address => uint256) public tagClaimedAt;  // Gamer addresses -> tag claim time\n\n  // @name Get Nickname\n  // @notice Gets an addresses nickname, will return an empty string if none is set\n  // @param _address The address to lookup nickname for\n  // @return Addresses nickname\n  function getNickname(address _address) external view returns(string memory) {\n    return nicknames[_address];\n  }\n\n  // @name Set Nickname\n  // @notice Sets an addresses nickname, can be changed as often as desired\n  // @param _nickname The new nickname to set for the calling player\n  function setNickname(string memory _nickname) external {\n    nicknames[msg.sender] = _nickname;\n    emit NicknameChange(msg.sender, _nickname);\n  }\n\n  // @name Is Tag Available?\n  // @notice Checks if a tag has already been claimed\n  // @param _tag The gamer tag to set for the calling player\n  // @return Whether the tag is available to claim\n  function isTagAvailable(string memory _tag) external view returns(bool){\n    return claimedTags[_tag] == address(0);\n  }\n\n  // @name Get Tag\n  // @notice Gets an addresses set tag, will return an empty string if none is set\n  // @param _address address to tag nickname for\n  // @return Addresses gamer tag\n  function getTag(address _address) external view returns(string memory) {\n    return tags[_address];\n  }\n\n  // @name Claim Tag\n  // @notice Will permanently claim an available tag for the calling address, only callable once per address\n  // @dev Will throw an error if the tag has already been claimed\n  // @param _tag The gamer tag to set for the calling player\n  function claimTag(string memory _tag) external {\n    require(claimedTags[_tag] == address(0), \"GT: tag already claimed\");\n    require(tagClaimedAt[msg.sender] == 0, \"GT: address has tag\");\n\n    // Set tag\n    tags[msg.sender] = _tag;\n    tagLookup[_tag] = msg.sender;\n    claimedTags[_tag] = msg.sender;\n    tagClaimedAt[msg.sender] = block.timestamp;\n    emit TagClaim(msg.sender, _tag, block.timestamp);\n  }\n\n  // @name On ERC721 Received\n  // @notice Support receiving ERC721 tokens, there is no way to retrieve anything sent to the contract.\n  // @dev This is to support owning permanent domain names minted as NFTs\n  function onERC721Received(address, address, uint256, bytes calldata) external pure override returns (bytes4) {\n    return this.onERC721Received.selector;\n  }\n}\n",
  "sourcePath": "/Users/tjharrison/professional/gamer-tag/contracts/GamerTag.sol",
  "compiler": {
    "name": "solc",
    "version": "0.8.15+commit.e14f2714.Emscripten.clang"
  },
  "schemaVersion": "3.4.3",
  "updatedAt": "2022-06-27T20:34:34.384Z",
  "networkType": "ethereum",
  "devdoc": {
    "kind": "dev",
    "methods": {},
    "version": 1
  },
  "userdoc": {
    "kind": "user",
    "methods": {},
    "version": 1
  }
}