{
  "contractName": "GamerTag",
  "abi": [
    {
      "anonymous": false,
      "inputs": [
        {
          "indexed": true,
          "internalType": "address",
          "name": "from",
          "type": "address"
        },
        {
          "indexed": false,
          "internalType": "string",
          "name": "nickname",
          "type": "string"
        }
      ],
      "name": "NicknameChange",
      "type": "event"
    },
    {
      "anonymous": false,
      "inputs": [
        {
          "indexed": true,
          "internalType": "address",
          "name": "from",
          "type": "address"
        },
        {
          "indexed": false,
          "internalType": "string",
          "name": "tag",
          "type": "string"
        },
        {
          "indexed": false,
          "internalType": "uint256",
          "name": "claimTime",
          "type": "uint256"
        }
      ],
      "name": "TagClaim",
      "type": "event"
    },
    {
      "inputs": [
        {
          "internalType": "address",
          "name": "",
          "type": "address"
        }
      ],
      "name": "tagClaimedAt",
      "outputs": [
        {
          "internalType": "uint256",
          "name": "",
          "type": "uint256"
        }
      ],
      "stateMutability": "view",
      "type": "function",
      "constant": true
    },
    {
      "inputs": [
        {
          "internalType": "string",
          "name": "",
          "type": "string"
        }
      ],
      "name": "tagLookup",
      "outputs": [
        {
          "internalType": "address",
          "name": "",
          "type": "address"
        }
      ],
      "stateMutability": "view",
      "type": "function",
      "constant": true
    },
    {
      "inputs": [
        {
          "internalType": "address",
          "name": "_address",
          "type": "address"
        }
      ],
      "name": "getNickname",
      "outputs": [
        {
          "internalType": "string",
          "name": "",
          "type": "string"
        }
      ],
      "stateMutability": "view",
      "type": "function",
      "constant": true
    },
    {
      "inputs": [
        {
          "internalType": "string",
          "name": "_nickname",
          "type": "string"
        }
      ],
      "name": "setNickname",
      "outputs": [],
      "stateMutability": "nonpayable",
      "type": "function"
    },
    {
      "inputs": [
        {
          "internalType": "string",
          "name": "_tag",
          "type": "string"
        }
      ],
      "name": "isTagAvailable",
      "outputs": [
        {
          "internalType": "bool",
          "name": "",
          "type": "bool"
        }
      ],
      "stateMutability": "view",
      "type": "function",
      "constant": true
    },
    {
      "inputs": [
        {
          "internalType": "address",
          "name": "_address",
          "type": "address"
        }
      ],
      "name": "getTag",
      "outputs": [
        {
          "internalType": "string",
          "name": "",
          "type": "string"
        }
      ],
      "stateMutability": "view",
      "type": "function",
      "constant": true
    },
    {
      "inputs": [
        {
          "internalType": "string",
          "name": "_tag",
          "type": "string"
        }
      ],
      "name": "claimTag",
      "outputs": [],
      "stateMutability": "nonpayable",
      "type": "function"
    }
  ],
  "bytecode": "0x608060405234801561001057600080fd5b50610f67806100206000396000f3fe608060405234801561001057600080fd5b506004361061007d5760003560e01c806316c20cda1161005b57806316c20cda146101125780631c5d9faa1461014257806325a24f4f1461015e578063adaccd741461017a5761007d565b80630dc307c6146100825780630ebcc8cd146100b25780631437645c146100e2575b600080fd5b61009c600480360381019061009791906108e6565b6101aa565b6040516100a9919061094a565b60405180910390f35b6100cc60048036038101906100c791906109c3565b610220565b6040516100d99190610a09565b60405180910390f35b6100fc60048036038101906100f791906109c3565b610238565b6040516101099190610aac565b60405180910390f35b61012c600480360381019061012791906108e6565b610308565b6040516101399190610add565b60405180910390f35b61015c600480360381019061015791906108e6565b610351565b005b610178600480360381019061017391906108e6565b6103ef565b005b610194600480360381019061018f91906109c3565b6106bb565b6040516101a19190610aac565b60405180910390f35b60008073ffffffffffffffffffffffffffffffffffffffff166003836040516101d39190610b34565b908152602001604051809103902060009054906101000a900473ffffffffffffffffffffffffffffffffffffffff1673ffffffffffffffffffffffffffffffffffffffff16149050919050565b60046020528060005260406000206000915090505481565b60606000808373ffffffffffffffffffffffffffffffffffffffff1673ffffffffffffffffffffffffffffffffffffffff168152602001908152602001600020805461028390610b7a565b80601f01602080910402602001604051908101604052809291908181526020018280546102af90610b7a565b80156102fc5780601f106102d1576101008083540402835291602001916102fc565b820191906000526020600020905b8154815290600101906020018083116102df57829003601f168201915b50505050509050919050565b6001818051602081018201805184825260208301602085012081835280955050505050506000915054906101000a900473ffffffffffffffffffffffffffffffffffffffff1681565b80600260003373ffffffffffffffffffffffffffffffffffffffff1673ffffffffffffffffffffffffffffffffffffffff168152602001908152602001600020908161039d9190610d57565b503373ffffffffffffffffffffffffffffffffffffffff167f07cc6558ea0056515ef58eb821d0c1a9b601bdf61657269c5981521cef9a6686826040516103e49190610aac565b60405180910390a250565b600073ffffffffffffffffffffffffffffffffffffffff166003826040516104179190610b34565b908152602001604051809103902060009054906101000a900473ffffffffffffffffffffffffffffffffffffffff1673ffffffffffffffffffffffffffffffffffffffff161461049c576040517f08c379a000000000000000000000000000000000000000000000000000000000815260040161049390610e75565b60405180910390fd5b6000600460003373ffffffffffffffffffffffffffffffffffffffff1673ffffffffffffffffffffffffffffffffffffffff168152602001908152602001600020541461051e576040517f08c379a000000000000000000000000000000000000000000000000000000000815260040161051590610ee1565b60405180910390fd5b806000803373ffffffffffffffffffffffffffffffffffffffff1673ffffffffffffffffffffffffffffffffffffffff16815260200190815260200160002090816105699190610d57565b503360018260405161057b9190610b34565b908152602001604051809103902060006101000a81548173ffffffffffffffffffffffffffffffffffffffff021916908373ffffffffffffffffffffffffffffffffffffffff160217905550336003826040516105d89190610b34565b908152602001604051809103902060006101000a81548173ffffffffffffffffffffffffffffffffffffffff021916908373ffffffffffffffffffffffffffffffffffffffff16021790555042600460003373ffffffffffffffffffffffffffffffffffffffff1673ffffffffffffffffffffffffffffffffffffffff168152602001908152602001600020819055503373ffffffffffffffffffffffffffffffffffffffff167f916b73c35d965dfcb229681a78adfb43148e12e93d86641314234dcf83ac019482426040516106b0929190610f01565b60405180910390a250565b6060600260008373ffffffffffffffffffffffffffffffffffffffff1673ffffffffffffffffffffffffffffffffffffffff168152602001908152602001600020805461070790610b7a565b80601f016020809104026020016040519081016040528092919081815260200182805461073390610b7a565b80156107805780601f1061075557610100808354040283529160200191610780565b820191906000526020600020905b81548152906001019060200180831161076357829003601f168201915b50505050509050919050565b6000604051905090565b600080fd5b600080fd5b600080fd5b600080fd5b6000601f19601f8301169050919050565b7f4e487b7100000000000000000000000000000000000000000000000000000000600052604160045260246000fd5b6107f3826107aa565b810181811067ffffffffffffffff82111715610812576108116107bb565b5b80604052505050565b600061082561078c565b905061083182826107ea565b919050565b600067ffffffffffffffff821115610851576108506107bb565b5b61085a826107aa565b9050602081019050919050565b82818337600083830152505050565b600061088961088484610836565b61081b565b9050828152602081018484840111156108a5576108a46107a5565b5b6108b0848285610867565b509392505050565b600082601f8301126108cd576108cc6107a0565b5b81356108dd848260208601610876565b91505092915050565b6000602082840312156108fc576108fb610796565b5b600082013567ffffffffffffffff81111561091a5761091961079b565b5b610926848285016108b8565b91505092915050565b60008115159050919050565b6109448161092f565b82525050565b600060208201905061095f600083018461093b565b92915050565b600073ffffffffffffffffffffffffffffffffffffffff82169050919050565b600061099082610965565b9050919050565b6109a081610985565b81146109ab57600080fd5b50565b6000813590506109bd81610997565b92915050565b6000602082840312156109d9576109d8610796565b5b60006109e7848285016109ae565b91505092915050565b6000819050919050565b610a03816109f0565b82525050565b6000602082019050610a1e60008301846109fa565b92915050565b600081519050919050565b600082825260208201905092915050565b60005b83811015610a5e578082015181840152602081019050610a43565b83811115610a6d576000848401525b50505050565b6000610a7e82610a24565b610a888185610a2f565b9350610a98818560208601610a40565b610aa1816107aa565b840191505092915050565b60006020820190508181036000830152610ac68184610a73565b905092915050565b610ad781610985565b82525050565b6000602082019050610af26000830184610ace565b92915050565b600081905092915050565b6000610b0e82610a24565b610b188185610af8565b9350610b28818560208601610a40565b80840191505092915050565b6000610b408284610b03565b915081905092915050565b7f4e487b7100000000000000000000000000000000000000000000000000000000600052602260045260246000fd5b60006002820490506001821680610b9257607f821691505b602082108103610ba557610ba4610b4b565b5b50919050565b60008190508160005260206000209050919050565b60006020601f8301049050919050565b600082821b905092915050565b600060088302610c0d7fffffffffffffffffffffffffffffffffffffffffffffffffffffffffffffffff82610bd0565b610c178683610bd0565b95508019841693508086168417925050509392505050565b6000819050919050565b6000610c54610c4f610c4a846109f0565b610c2f565b6109f0565b9050919050565b6000819050919050565b610c6e83610c39565b610c82610c7a82610c5b565b848454610bdd565b825550505050565b600090565b610c97610c8a565b610ca2818484610c65565b505050565b5b81811015610cc657610cbb600082610c8f565b600181019050610ca8565b5050565b601f821115610d0b57610cdc81610bab565b610ce584610bc0565b81016020851015610cf4578190505b610d08610d0085610bc0565b830182610ca7565b50505b505050565b600082821c905092915050565b6000610d2e60001984600802610d10565b1980831691505092915050565b6000610d478383610d1d565b9150826002028217905092915050565b610d6082610a24565b67ffffffffffffffff811115610d7957610d786107bb565b5b610d838254610b7a565b610d8e828285610cca565b600060209050601f831160018114610dc15760008415610daf578287015190505b610db98582610d3b565b865550610e21565b601f198416610dcf86610bab565b60005b82811015610df757848901518255600182019150602085019450602081019050610dd2565b86831015610e145784890151610e10601f891682610d1d565b8355505b6001600288020188555050505b505050505050565b7f47543a2074616720616c726561647920636c61696d6564000000000000000000600082015250565b6000610e5f601783610a2f565b9150610e6a82610e29565b602082019050919050565b60006020820190508181036000830152610e8e81610e52565b9050919050565b7f47543a2061646472657373206861732074616700000000000000000000000000600082015250565b6000610ecb601383610a2f565b9150610ed682610e95565b602082019050919050565b60006020820190508181036000830152610efa81610ebe565b9050919050565b60006040820190508181036000830152610f1b8185610a73565b9050610f2a60208301846109fa565b939250505056fea26469706673582212202517f9a2d5c6400853fb031fe204ed17777f9d6d9a82b6a58f42c87ab890069264736f6c634300080f0033",
  "immutableReferences": {},
  "source": "// SPDX-License-Identifier: GPL\npragma solidity ^0.8.11;\n\nimport \"./IGamerTag.sol\";\n\n// @name Gamer Tag\ncontract GamerTag is IGamerTag {\n  mapping(address => string) private tags;          // Gamer addresses -> tags (unique)\n  mapping(string => address) public tagLookup;      // Gamer tags -> addresses\n  mapping(address => string) private nicknames;     // Gamer addresses -> nicknames (not unique)\n  mapping(string => address) private claimedTags;   // Tags -> gamer address with it set\n  mapping(address => uint256) public tagClaimedAt;  // Gamer addresses -> tag claim time\n\n  // @name Get Nickname\n  // @notice Gets an addresses nickname, will return an empty string if none is set\n  // @param _address The address to lookup nickname for\n  // @return Addresses nickname\n  function getNickname(address _address) external view returns(string memory) {\n    return nicknames[_address];\n  }\n\n  // @name Set Nickname\n  // @notice Sets an addresses nickname, can be changed as often as desired\n  // @param _nickname The new nickname to set for the calling player\n  function setNickname(string memory _nickname) external {\n    nicknames[msg.sender] = _nickname;\n    emit NicknameChange(msg.sender, _nickname);\n  }\n\n  // @name Is Tag Available?\n  // @notice Checks if a tag has already been claimed\n  // @param _tag The gamer tag to set for the calling player\n  // @return Whether the tag is available to claim\n  function isTagAvailable(string memory _tag) external view returns(bool){\n    return claimedTags[_tag] == address(0);\n  }\n\n  // @name Get Tag\n  // @notice Gets an addresses set tag, will return an empty string if none is set\n  // @param _address address to tag nickname for\n  // @return Addresses gamer tag\n  function getTag(address _address) external view returns(string memory) {\n    return tags[_address];\n  }\n\n  // @name Claim Tag\n  // @notice Will permanently claim an available tag for the calling address, only callable once per address\n  // @dev Will throw an error if the tag has already been claimed\n  // @param _tag The gamer tag to set for the calling player\n  function claimTag(string memory _tag) external {\n    require(claimedTags[_tag] == address(0), \"GT: tag already claimed\");\n    require(tagClaimedAt[msg.sender] == 0, \"GT: address has tag\");\n\n    // Set tag\n    tags[msg.sender] = _tag;\n    tagLookup[_tag] = msg.sender;\n    claimedTags[_tag] = msg.sender;\n    tagClaimedAt[msg.sender] = block.timestamp;\n    emit TagClaim(msg.sender, _tag, block.timestamp);\n  }\n}\n",
  "sourcePath": "/Users/tjharrison/he/gamer-tag/contracts/GamerTag.sol",
  "compiler": {
    "name": "solc",
    "version": "0.8.15+commit.e14f2714.Emscripten.clang"
  },
  "schemaVersion": "3.4.3",
  "updatedAt": "2022-06-26T22:33:06.216Z",
  "networkType": "ethereum",
  "devdoc": {
    "kind": "dev",
    "methods": {},
    "version": 1
  },
  "userdoc": {
    "kind": "user",
    "methods": {},
    "version": 1
  }
}